{
  "contracts/SetterGetter.sol": {
    "SetterGetter": {
      "abi": [
        {
          "inputs": [],
          "name": "getName",
          "outputs": [
            {
              "internalType": "string",
              "name": "",
              "type": "string"
            }
          ],
          "stateMutability": "view",
          "type": "function"
        },
        {
          "inputs": [
            {
              "internalType": "string",
              "name": "_name",
              "type": "string"
            }
          ],
          "name": "setName",
          "outputs": [],
          "stateMutability": "nonpayable",
          "type": "function"
        }
      ],
      "evm": {
        "bytecode": {
          "linkReferences": {},
          "object": "608060405234801561001057600080fd5b5061067c806100206000396000f3fe608060405234801561001057600080fd5b50600436106100365760003560e01c806317d7de7c1461003b578063c47f002714610059575b600080fd5b610043610075565b60405161005091906101aa565b60405180910390f35b610073600480360381019061006e9190610315565b610107565b005b6060600080546100849061038d565b80601f01602080910402602001604051908101604052809291908181526020018280546100b09061038d565b80156100fd5780601f106100d2576101008083540402835291602001916100fd565b820191906000526020600020905b8154815290600101906020018083116100e057829003601f168201915b5050505050905090565b80600090816101169190610574565b5050565b600081519050919050565b600082825260208201905092915050565b60005b83811015610154578082015181840152602081019050610139565b60008484015250505050565b6000601f19601f8301169050919050565b600061017c8261011a565b6101868185610125565b9350610196818560208601610136565b61019f81610160565b840191505092915050565b600060208201905081810360008301526101c48184610171565b905092915050565b6000604051905090565b600080fd5b600080fd5b600080fd5b600080fd5b7f4e487b7100000000000000000000000000000000000000000000000000000000600052604160045260246000fd5b61022282610160565b810181811067ffffffffffffffff82111715610241576102406101ea565b5b80604052505050565b60006102546101cc565b90506102608282610219565b919050565b600067ffffffffffffffff8211156102805761027f6101ea565b5b61028982610160565b9050602081019050919050565b82818337600083830152505050565b60006102b86102b384610265565b61024a565b9050828152602081018484840111156102d4576102d36101e5565b5b6102df848285610296565b509392505050565b600082601f8301126102fc576102fb6101e0565b5b813561030c8482602086016102a5565b91505092915050565b60006020828403121561032b5761032a6101d6565b5b600082013567ffffffffffffffff811115610349576103486101db565b5b610355848285016102e7565b91505092915050565b7f4e487b7100000000000000000000000000000000000000000000000000000000600052602260045260246000fd5b600060028204905060018216806103a557607f821691505b6020821081036103b8576103b761035e565b5b50919050565b60008190508160005260206000209050919050565b60006020601f8301049050919050565b600082821b905092915050565b6000600883026104207fffffffffffffffffffffffffffffffffffffffffffffffffffffffffffffffff826103e3565b61042a86836103e3565b95508019841693508086168417925050509392505050565b6000819050919050565b6000819050919050565b600061047161046c61046784610442565b61044c565b610442565b9050919050565b6000819050919050565b61048b83610456565b61049f61049782610478565b8484546103f0565b825550505050565b600090565b6104b46104a7565b6104bf818484610482565b505050565b5b818110156104e3576104d86000826104ac565b6001810190506104c5565b5050565b601f821115610528576104f9816103be565b610502846103d3565b81016020851015610511578190505b61052561051d856103d3565b8301826104c4565b50505b505050565b600082821c905092915050565b600061054b6000198460080261052d565b1980831691505092915050565b6000610564838361053a565b9150826002028217905092915050565b61057d8261011a565b67ffffffffffffffff811115610596576105956101ea565b5b6105a0825461038d565b6105ab8282856104e7565b600060209050601f8311600181146105de57600084156105cc578287015190505b6105d68582610558565b86555061063e565b601f1984166105ec866103be565b60005b82811015610614578489015182556001820191506020850194506020810190506105ef565b86831015610631578489015161062d601f89168261053a565b8355505b6001600288020188555050505b50505050505056fea26469706673582212200057888d2f64330335fb3f02db34e8e11ea1ca2fb499075e7acb8f12af83444564736f6c63430008180033",
          "opcodes": "PUSH1 0x80 PUSH1 0x40 MSTORE CALLVALUE DUP1 ISZERO PUSH2 0x10 JUMPI PUSH1 0x0 DUP1 REVERT JUMPDEST POP PUSH2 0x67C DUP1 PUSH2 0x20 PUSH1 0x0 CODECOPY PUSH1 0x0 RETURN INVALID PUSH1 0x80 PUSH1 0x40 MSTORE CALLVALUE DUP1 ISZERO PUSH2 0x10 JUMPI PUSH1 0x0 DUP1 REVERT JUMPDEST POP PUSH1 0x4 CALLDATASIZE LT PUSH2 0x36 JUMPI PUSH1 0x0 CALLDATALOAD PUSH1 0xE0 SHR DUP1 PUSH4 0x17D7DE7C EQ PUSH2 0x3B JUMPI DUP1 PUSH4 0xC47F0027 EQ PUSH2 0x59 JUMPI JUMPDEST PUSH1 0x0 DUP1 REVERT JUMPDEST PUSH2 0x43 PUSH2 0x75 JUMP JUMPDEST PUSH1 0x40 MLOAD PUSH2 0x50 SWAP2 SWAP1 PUSH2 0x1AA JUMP JUMPDEST PUSH1 0x40 MLOAD DUP1 SWAP2 SUB SWAP1 RETURN JUMPDEST PUSH2 0x73 PUSH1 0x4 DUP1 CALLDATASIZE SUB DUP2 ADD SWAP1 PUSH2 0x6E SWAP2 SWAP1 PUSH2 0x315 JUMP JUMPDEST PUSH2 0x107 JUMP JUMPDEST STOP JUMPDEST PUSH1 0x60 PUSH1 0x0 DUP1 SLOAD PUSH2 0x84 SWAP1 PUSH2 0x38D JUMP JUMPDEST DUP1 PUSH1 0x1F ADD PUSH1 0x20 DUP1 SWAP2 DIV MUL PUSH1 0x20 ADD PUSH1 0x40 MLOAD SWAP1 DUP2 ADD PUSH1 0x40 MSTORE DUP1 SWAP3 SWAP2 SWAP1 DUP2 DUP2 MSTORE PUSH1 0x20 ADD DUP3 DUP1 SLOAD PUSH2 0xB0 SWAP1 PUSH2 0x38D JUMP JUMPDEST DUP1 ISZERO PUSH2 0xFD JUMPI DUP1 PUSH1 0x1F LT PUSH2 0xD2 JUMPI PUSH2 0x100 DUP1 DUP4 SLOAD DIV MUL DUP4 MSTORE SWAP2 PUSH1 0x20 ADD SWAP2 PUSH2 0xFD JUMP JUMPDEST DUP3 ADD SWAP2 SWAP1 PUSH1 0x0 MSTORE PUSH1 0x20 PUSH1 0x0 KECCAK256 SWAP1 JUMPDEST DUP2 SLOAD DUP2 MSTORE SWAP1 PUSH1 0x1 ADD SWAP1 PUSH1 0x20 ADD DUP1 DUP4 GT PUSH2 0xE0 JUMPI DUP3 SWAP1 SUB PUSH1 0x1F AND DUP3 ADD SWAP2 JUMPDEST POP POP POP POP POP SWAP1 POP SWAP1 JUMP JUMPDEST DUP1 PUSH1 0x0 SWAP1 DUP2 PUSH2 0x116 SWAP2 SWAP1 PUSH2 0x574 JUMP JUMPDEST POP POP JUMP JUMPDEST PUSH1 0x0 DUP2 MLOAD SWAP1 POP SWAP2 SWAP1 POP JUMP JUMPDEST PUSH1 0x0 DUP3 DUP3 MSTORE PUSH1 0x20 DUP3 ADD SWAP1 POP SWAP3 SWAP2 POP POP JUMP JUMPDEST PUSH1 0x0 JUMPDEST DUP4 DUP2 LT ISZERO PUSH2 0x154 JUMPI DUP1 DUP3 ADD MLOAD DUP2 DUP5 ADD MSTORE PUSH1 0x20 DUP2 ADD SWAP1 POP PUSH2 0x139 JUMP JUMPDEST PUSH1 0x0 DUP5 DUP5 ADD MSTORE POP POP POP POP JUMP JUMPDEST PUSH1 0x0 PUSH1 0x1F NOT PUSH1 0x1F DUP4 ADD AND SWAP1 POP SWAP2 SWAP1 POP JUMP JUMPDEST PUSH1 0x0 PUSH2 0x17C DUP3 PUSH2 0x11A JUMP JUMPDEST PUSH2 0x186 DUP2 DUP6 PUSH2 0x125 JUMP JUMPDEST SWAP4 POP PUSH2 0x196 DUP2 DUP6 PUSH1 0x20 DUP7 ADD PUSH2 0x136 JUMP JUMPDEST PUSH2 0x19F DUP2 PUSH2 0x160 JUMP JUMPDEST DUP5 ADD SWAP2 POP POP SWAP3 SWAP2 POP POP JUMP JUMPDEST PUSH1 0x0 PUSH1 0x20 DUP3 ADD SWAP1 POP DUP2 DUP2 SUB PUSH1 0x0 DUP4 ADD MSTORE PUSH2 0x1C4 DUP2 DUP5 PUSH2 0x171 JUMP JUMPDEST SWAP1 POP SWAP3 SWAP2 POP POP JUMP JUMPDEST PUSH1 0x0 PUSH1 0x40 MLOAD SWAP1 POP SWAP1 JUMP JUMPDEST PUSH1 0x0 DUP1 REVERT JUMPDEST PUSH1 0x0 DUP1 REVERT JUMPDEST PUSH1 0x0 DUP1 REVERT JUMPDEST PUSH1 0x0 DUP1 REVERT JUMPDEST PUSH32 0x4E487B7100000000000000000000000000000000000000000000000000000000 PUSH1 0x0 MSTORE PUSH1 0x41 PUSH1 0x4 MSTORE PUSH1 0x24 PUSH1 0x0 REVERT JUMPDEST PUSH2 0x222 DUP3 PUSH2 0x160 JUMP JUMPDEST DUP2 ADD DUP2 DUP2 LT PUSH8 0xFFFFFFFFFFFFFFFF DUP3 GT OR ISZERO PUSH2 0x241 JUMPI PUSH2 0x240 PUSH2 0x1EA JUMP JUMPDEST JUMPDEST DUP1 PUSH1 0x40 MSTORE POP POP POP JUMP JUMPDEST PUSH1 0x0 PUSH2 0x254 PUSH2 0x1CC JUMP JUMPDEST SWAP1 POP PUSH2 0x260 DUP3 DUP3 PUSH2 0x219 JUMP JUMPDEST SWAP2 SWAP1 POP JUMP JUMPDEST PUSH1 0x0 PUSH8 0xFFFFFFFFFFFFFFFF DUP3 GT ISZERO PUSH2 0x280 JUMPI PUSH2 0x27F PUSH2 0x1EA JUMP JUMPDEST JUMPDEST PUSH2 0x289 DUP3 PUSH2 0x160 JUMP JUMPDEST SWAP1 POP PUSH1 0x20 DUP2 ADD SWAP1 POP SWAP2 SWAP1 POP JUMP JUMPDEST DUP3 DUP2 DUP4 CALLDATACOPY PUSH1 0x0 DUP4 DUP4 ADD MSTORE POP POP POP JUMP JUMPDEST PUSH1 0x0 PUSH2 0x2B8 PUSH2 0x2B3 DUP5 PUSH2 0x265 JUMP JUMPDEST PUSH2 0x24A JUMP JUMPDEST SWAP1 POP DUP3 DUP2 MSTORE PUSH1 0x20 DUP2 ADD DUP5 DUP5 DUP5 ADD GT ISZERO PUSH2 0x2D4 JUMPI PUSH2 0x2D3 PUSH2 0x1E5 JUMP JUMPDEST JUMPDEST PUSH2 0x2DF DUP5 DUP3 DUP6 PUSH2 0x296 JUMP JUMPDEST POP SWAP4 SWAP3 POP POP POP JUMP JUMPDEST PUSH1 0x0 DUP3 PUSH1 0x1F DUP4 ADD SLT PUSH2 0x2FC JUMPI PUSH2 0x2FB PUSH2 0x1E0 JUMP JUMPDEST JUMPDEST DUP2 CALLDATALOAD PUSH2 0x30C DUP5 DUP3 PUSH1 0x20 DUP7 ADD PUSH2 0x2A5 JUMP JUMPDEST SWAP2 POP POP SWAP3 SWAP2 POP POP JUMP JUMPDEST PUSH1 0x0 PUSH1 0x20 DUP3 DUP5 SUB SLT ISZERO PUSH2 0x32B JUMPI PUSH2 0x32A PUSH2 0x1D6 JUMP JUMPDEST JUMPDEST PUSH1 0x0 DUP3 ADD CALLDATALOAD PUSH8 0xFFFFFFFFFFFFFFFF DUP2 GT ISZERO PUSH2 0x349 JUMPI PUSH2 0x348 PUSH2 0x1DB JUMP JUMPDEST JUMPDEST PUSH2 0x355 DUP5 DUP3 DUP6 ADD PUSH2 0x2E7 JUMP JUMPDEST SWAP2 POP POP SWAP3 SWAP2 POP POP JUMP JUMPDEST PUSH32 0x4E487B7100000000000000000000000000000000000000000000000000000000 PUSH1 0x0 MSTORE PUSH1 0x22 PUSH1 0x4 MSTORE PUSH1 0x24 PUSH1 0x0 REVERT JUMPDEST PUSH1 0x0 PUSH1 0x2 DUP3 DIV SWAP1 POP PUSH1 0x1 DUP3 AND DUP1 PUSH2 0x3A5 JUMPI PUSH1 0x7F DUP3 AND SWAP2 POP JUMPDEST PUSH1 0x20 DUP3 LT DUP2 SUB PUSH2 0x3B8 JUMPI PUSH2 0x3B7 PUSH2 0x35E JUMP JUMPDEST JUMPDEST POP SWAP2 SWAP1 POP JUMP JUMPDEST PUSH1 0x0 DUP2 SWAP1 POP DUP2 PUSH1 0x0 MSTORE PUSH1 0x20 PUSH1 0x0 KECCAK256 SWAP1 POP SWAP2 SWAP1 POP JUMP JUMPDEST PUSH1 0x0 PUSH1 0x20 PUSH1 0x1F DUP4 ADD DIV SWAP1 POP SWAP2 SWAP1 POP JUMP JUMPDEST PUSH1 0x0 DUP3 DUP3 SHL SWAP1 POP SWAP3 SWAP2 POP POP JUMP JUMPDEST PUSH1 0x0 PUSH1 0x8 DUP4 MUL PUSH2 0x420 PUSH32 0xFFFFFFFFFFFFFFFFFFFFFFFFFFFFFFFFFFFFFFFFFFFFFFFFFFFFFFFFFFFFFFFF DUP3 PUSH2 0x3E3 JUMP JUMPDEST PUSH2 0x42A DUP7 DUP4 PUSH2 0x3E3 JUMP JUMPDEST SWAP6 POP DUP1 NOT DUP5 AND SWAP4 POP DUP1 DUP7 AND DUP5 OR SWAP3 POP POP POP SWAP4 SWAP3 POP POP POP JUMP JUMPDEST PUSH1 0x0 DUP2 SWAP1 POP SWAP2 SWAP1 POP JUMP JUMPDEST PUSH1 0x0 DUP2 SWAP1 POP SWAP2 SWAP1 POP JUMP JUMPDEST PUSH1 0x0 PUSH2 0x471 PUSH2 0x46C PUSH2 0x467 DUP5 PUSH2 0x442 JUMP JUMPDEST PUSH2 0x44C JUMP JUMPDEST PUSH2 0x442 JUMP JUMPDEST SWAP1 POP SWAP2 SWAP1 POP JUMP JUMPDEST PUSH1 0x0 DUP2 SWAP1 POP SWAP2 SWAP1 POP JUMP JUMPDEST PUSH2 0x48B DUP4 PUSH2 0x456 JUMP JUMPDEST PUSH2 0x49F PUSH2 0x497 DUP3 PUSH2 0x478 JUMP JUMPDEST DUP5 DUP5 SLOAD PUSH2 0x3F0 JUMP JUMPDEST DUP3 SSTORE POP POP POP POP JUMP JUMPDEST PUSH1 0x0 SWAP1 JUMP JUMPDEST PUSH2 0x4B4 PUSH2 0x4A7 JUMP JUMPDEST PUSH2 0x4BF DUP2 DUP5 DUP5 PUSH2 0x482 JUMP JUMPDEST POP POP POP JUMP JUMPDEST JUMPDEST DUP2 DUP2 LT ISZERO PUSH2 0x4E3 JUMPI PUSH2 0x4D8 PUSH1 0x0 DUP3 PUSH2 0x4AC JUMP JUMPDEST PUSH1 0x1 DUP2 ADD SWAP1 POP PUSH2 0x4C5 JUMP JUMPDEST POP POP JUMP JUMPDEST PUSH1 0x1F DUP3 GT ISZERO PUSH2 0x528 JUMPI PUSH2 0x4F9 DUP2 PUSH2 0x3BE JUMP JUMPDEST PUSH2 0x502 DUP5 PUSH2 0x3D3 JUMP JUMPDEST DUP2 ADD PUSH1 0x20 DUP6 LT ISZERO PUSH2 0x511 JUMPI DUP2 SWAP1 POP JUMPDEST PUSH2 0x525 PUSH2 0x51D DUP6 PUSH2 0x3D3 JUMP JUMPDEST DUP4 ADD DUP3 PUSH2 0x4C4 JUMP JUMPDEST POP POP JUMPDEST POP POP POP JUMP JUMPDEST PUSH1 0x0 DUP3 DUP3 SHR SWAP1 POP SWAP3 SWAP2 POP POP JUMP JUMPDEST PUSH1 0x0 PUSH2 0x54B PUSH1 0x0 NOT DUP5 PUSH1 0x8 MUL PUSH2 0x52D JUMP JUMPDEST NOT DUP1 DUP4 AND SWAP2 POP POP SWAP3 SWAP2 POP POP JUMP JUMPDEST PUSH1 0x0 PUSH2 0x564 DUP4 DUP4 PUSH2 0x53A JUMP JUMPDEST SWAP2 POP DUP3 PUSH1 0x2 MUL DUP3 OR SWAP1 POP SWAP3 SWAP2 POP POP JUMP JUMPDEST PUSH2 0x57D DUP3 PUSH2 0x11A JUMP JUMPDEST PUSH8 0xFFFFFFFFFFFFFFFF DUP2 GT ISZERO PUSH2 0x596 JUMPI PUSH2 0x595 PUSH2 0x1EA JUMP JUMPDEST JUMPDEST PUSH2 0x5A0 DUP3 SLOAD PUSH2 0x38D JUMP JUMPDEST PUSH2 0x5AB DUP3 DUP3 DUP6 PUSH2 0x4E7 JUMP JUMPDEST PUSH1 0x0 PUSH1 0x20 SWAP1 POP PUSH1 0x1F DUP4 GT PUSH1 0x1 DUP2 EQ PUSH2 0x5DE JUMPI PUSH1 0x0 DUP5 ISZERO PUSH2 0x5CC JUMPI DUP3 DUP8 ADD MLOAD SWAP1 POP JUMPDEST PUSH2 0x5D6 DUP6 DUP3 PUSH2 0x558 JUMP JUMPDEST DUP7 SSTORE POP PUSH2 0x63E JUMP JUMPDEST PUSH1 0x1F NOT DUP5 AND PUSH2 0x5EC DUP7 PUSH2 0x3BE JUMP JUMPDEST PUSH1 0x0 JUMPDEST DUP3 DUP2 LT ISZERO PUSH2 0x614 JUMPI DUP5 DUP10 ADD MLOAD DUP3 SSTORE PUSH1 0x1 DUP3 ADD SWAP2 POP PUSH1 0x20 DUP6 ADD SWAP5 POP PUSH1 0x20 DUP2 ADD SWAP1 POP PUSH2 0x5EF JUMP JUMPDEST DUP7 DUP4 LT ISZERO PUSH2 0x631 JUMPI DUP5 DUP10 ADD MLOAD PUSH2 0x62D PUSH1 0x1F DUP10 AND DUP3 PUSH2 0x53A JUMP JUMPDEST DUP4 SSTORE POP JUMPDEST PUSH1 0x1 PUSH1 0x2 DUP9 MUL ADD DUP9 SSTORE POP POP POP JUMPDEST POP POP POP POP POP POP JUMP INVALID LOG2 PUSH5 0x6970667358 0x22 SLT KECCAK256 STOP JUMPI DUP9 DUP14 0x2F PUSH5 0x330335FB3F MUL 0xDB CALLVALUE 0xE8 0xE1 0x1E LOG1 0xCA 0x2F 0xB4 SWAP10 SMOD MCOPY PUSH27 0xCB8F12AF83444564736F6C63430008180033000000000000000000 "
        },
        "methodIdentifiers": {
          "getName()": "17d7de7c",
          "setName(string)": "c47f0027"
        }
      }
    }
  }
}