{
  "_format": "hh-sol-artifact-1",
  "contractName": "Attacker",
  "sourceName": "contracts/Attacker.sol",
  "abi": [
    {
      "inputs": [
        {
          "internalType": "address",
          "name": "_challengeAddress",
          "type": "address"
        }
      ],
      "stateMutability": "nonpayable",
      "type": "constructor"
    },
    {
      "stateMutability": "payable",
      "type": "fallback"
    },
    {
      "inputs": [
        {
          "internalType": "string",
          "name": "_name",
          "type": "string"
        }
      ],
      "name": "attack",
      "outputs": [],
      "stateMutability": "nonpayable",
      "type": "function"
    }
  ],
  "bytecode": "0x608060405234801561001057600080fd5b506040516104e93803806104e9833981810160405281019061003291906100db565b806000806101000a81548173ffffffffffffffffffffffffffffffffffffffff021916908373ffffffffffffffffffffffffffffffffffffffff16021790555050610108565b600080fd5b600073ffffffffffffffffffffffffffffffffffffffff82169050919050565b60006100a88261007d565b9050919050565b6100b88161009d565b81146100c357600080fd5b50565b6000815190506100d5816100af565b92915050565b6000602082840312156100f1576100f0610078565b5b60006100ff848285016100c6565b91505092915050565b6103d2806101176000396000f3fe6080604052600436106100225760003560e01c8063aabb7554146100a157610023565b5b60008054906101000a900473ffffffffffffffffffffffffffffffffffffffff1673ffffffffffffffffffffffffffffffffffffffff16634c228cc76040518163ffffffff1660e01b8152600401600060405180830381600087803b15801561008b57600080fd5b505af115801561009f573d6000803e3d6000fd5b005b3480156100ad57600080fd5b506100c860048036038101906100c391906102b2565b6100ca565b005b60008054906101000a900473ffffffffffffffffffffffffffffffffffffffff1673ffffffffffffffffffffffffffffffffffffffff166332e52498826040518263ffffffff1660e01b8152600401610123919061037a565b600060405180830381600087803b15801561013d57600080fd5b505af1158015610151573d6000803e3d6000fd5b5050505050565b6000604051905090565b600080fd5b600080fd5b600080fd5b600080fd5b6000601f19601f8301169050919050565b7f4e487b7100000000000000000000000000000000000000000000000000000000600052604160045260246000fd5b6101bf82610176565b810181811067ffffffffffffffff821117156101de576101dd610187565b5b80604052505050565b60006101f1610158565b90506101fd82826101b6565b919050565b600067ffffffffffffffff82111561021d5761021c610187565b5b61022682610176565b9050602081019050919050565b82818337600083830152505050565b600061025561025084610202565b6101e7565b90508281526020810184848401111561027157610270610171565b5b61027c848285610233565b509392505050565b600082601f8301126102995761029861016c565b5b81356102a9848260208601610242565b91505092915050565b6000602082840312156102c8576102c7610162565b5b600082013567ffffffffffffffff8111156102e6576102e5610167565b5b6102f284828501610284565b91505092915050565b600081519050919050565b600082825260208201905092915050565b60005b8381101561033557808201518184015260208101905061031a565b60008484015250505050565b600061034c826102fb565b6103568185610306565b9350610366818560208601610317565b61036f81610176565b840191505092915050565b600060208201905081810360008301526103948184610341565b90509291505056fea2646970667358221220c3bc68f93a294e7b269342b658865702657a865039e088489a9e542526ae25d464736f6c63430008180033",
  "linkReferences": {},
  "deployedLinkReferences": {}
}