{
  "_format": "hh-sol-artifact-1",
  "contractName": "AreaCalculator",
  "sourceName": "contracts/AreaCalculator.sol",
  "abi": [
    {
      "inputs": [
        {
          "internalType": "uint256",
          "name": "length",
          "type": "uint256"
        },
        {
          "internalType": "uint256",
          "name": "breadth",
          "type": "uint256"
        }
      ],
      "name": "calculateRectangleArea",
      "outputs": [
        {
          "internalType": "uint256",
          "name": "",
          "type": "uint256"
        }
      ],
      "stateMutability": "pure",
      "type": "function"
    },
    {
      "inputs": [
        {
          "internalType": "uint256",
          "name": "length",
          "type": "uint256"
        }
      ],
      "name": "calculateSquareArea",
      "outputs": [
        {
          "internalType": "uint256",
          "name": "",
          "type": "uint256"
        }
      ],
      "stateMutability": "pure",
      "type": "function"
    },
    {
      "inputs": [
        {
          "internalType": "uint256",
          "name": "base",
          "type": "uint256"
        },
        {
          "internalType": "uint256",
          "name": "height",
          "type": "uint256"
        }
      ],
      "name": "calculateTriangleArea",
      "outputs": [
        {
          "internalType": "uint256",
          "name": "",
          "type": "uint256"
        }
      ],
      "stateMutability": "view",
      "type": "function"
    },
    {
      "inputs": [],
      "name": "precision",
      "outputs": [
        {
          "internalType": "uint256",
          "name": "",
          "type": "uint256"
        }
      ],
      "stateMutability": "view",
      "type": "function"
    }
  ],
  "bytecode": "0x6080604052670de0b6b3a764000060005534801561001c57600080fd5b5061034a8061002c6000396000f3fe608060405234801561001057600080fd5b506004361061004c5760003560e01c806312c0f98214610051578063ab65aa3414610081578063bda1ea67146100b1578063d3b5dc3b146100e1575b600080fd5b61006b600480360381019061006691906101ac565b6100ff565b60405161007891906101e8565b60405180910390f35b61009b60048036038101906100969190610203565b610114565b6040516100a891906101e8565b60405180910390f35b6100cb60048036038101906100c69190610203565b61012a565b6040516100d891906101e8565b60405180910390f35b6100e961016b565b6040516100f691906101e8565b60405180910390f35b6000818261010d9190610272565b9050919050565b600081836101229190610272565b905092915050565b6000806002600054848661013e9190610272565b6101489190610272565b61015291906102e3565b90506000548161016291906102e3565b91505092915050565b60005481565b600080fd5b6000819050919050565b61018981610176565b811461019457600080fd5b50565b6000813590506101a681610180565b92915050565b6000602082840312156101c2576101c1610171565b5b60006101d084828501610197565b91505092915050565b6101e281610176565b82525050565b60006020820190506101fd60008301846101d9565b92915050565b6000806040838503121561021a57610219610171565b5b600061022885828601610197565b925050602061023985828601610197565b9150509250929050565b7f4e487b7100000000000000000000000000000000000000000000000000000000600052601160045260246000fd5b600061027d82610176565b915061028883610176565b925082820261029681610176565b915082820484148315176102ad576102ac610243565b5b5092915050565b7f4e487b7100000000000000000000000000000000000000000000000000000000600052601260045260246000fd5b60006102ee82610176565b91506102f983610176565b925082610309576103086102b4565b5b82820490509291505056fea2646970667358221220e6d69eccf24ebe6cdfb5d08ce6e54bddb262613c93d1b73591906fa3834d364564736f6c63430008180033",
  "linkReferences": {},
  "deployedLinkReferences": {}
}